:10080000C2B5C2B3C2B0C295C292C2B2C297C294BC
:10081000C291C2B4C2B1C296C293C290C280C2B6E3
:10082000C281C2B77F647E001208E5C2B5C2B3C2FE
:10083000B0C295C292D2B2D297D294D291D2B4D24F
:10084000B1D296D293D290D280D2B6C281C2B77FB3
:10085000647E001208E5D2B7D2B5D292C2B6C2B455
:10086000C2901209291208E1D290C2911209297F7F
:100870002C7E011208E5D291D2B6D2B4C2B7C2B56D
:10088000C292D295C2931209291208E1D293C2945E
:100890001209297F2C7E011208E5D294C295D2B0AC
:1008A000C2961209291208E1D296C2971209297F2D
:1008B0002C7E011208E5D297C2B0D281D2B3C28099
:1008C000C2B11209291208E1D2B1C2B21209297FBC
:1008D0002C7E011208E5D280D2B2C281C2B30208D6
:0108E00056C1
:0408E1007FF47E0121
:0408E5008E088F09E1
:1008E900E4F50AF50BC3E50B9509E50A95085023CC
:1008F900E4F50CF50D120929050DE50D7002050C3D
:10090900C394FBE50C940440EC050BE50B70D6058C
:030919000A80D27F
:01091C0022B8
:09092900208203C28322D2832242
:0300000002091DD5
:0C091D00787FE4F6D8FD75810D0208001B
:00000001FF
